:100000000C9450000C946D000C946D000C946D00D9
:100010000C946D000C946D000C946D000C946D00AC
:100020000C946D000C946D000C946D000C946D009C
:100030000C946D000C946D000C946D000C946D008C
:100040000C946D000C946D000C946D000C946D007C
:100050000C946D000C946D000C946D000C946D006C
:100060000C946D000C946D000C946D000C946D005C
:100070000C946D000C946D000C946D000C946D004C
:100080000C946D000C946D000C946D000C946D003C
:100090000C940F010C946D000C946D000C946D0089
:1000A00011241FBECFEFCDBFDFE3DEBF18E2A0E01B
:1000B000B8E2E4E6F7E002C005900D92A430B10783
:1000C000D9F728E2A4E0B8E201C01D92A631B20738
:1000D000E1F70E9473010C9478030C940000CF9315
:1000E000DF9390E0FC01E65BF84B20812F3F69F045
:1000F000FC01E05DF84BE08130E2E39FF001112468
:10010000FC5F6130710521F42183DF91CF91089567
:100110008A5E984BEC01A881AF3F69F0CF01409611
:10012000A80FB92FB11D9FB7F89422838C91877FB8
:100130008C939FBFEACFB0E0A0E0F5CF282F30E04E
:10014000F901E450F94BE081EE2309F1E13021F0AF
:10015000F0F0E63098F008954091010A2A5E384B9D
:10016000F90120812C5F81E090E001C0880F2A9581
:10017000EAF7809584238093010A089580E1E89F3F
:10018000F0011124E05AF54F81818F7E818308951B
:10019000FF920F931F93CF93DF93082F10E0F80186
:1001A000E65BF84BF0809FEFF916A1F0EB018B3284
:1001B00010F40E949E00F801E05DF84BE08180E2BF
:1001C000E89FF0011124FC5F80818F2179F0209756
:1001D00039F4F682DF91CF911F910F91FF9008952E
:1001E000229711F4F782F6CFF582F4CFD801AA5EF8
:1001F000B84B8C91309771F08F3F61F07096E80F9B
:10020000F11D9FB7F8948081CD2B39F4877F8083CF
:100210009FBFE0CFF0E0E0E0F4CF8860F8CF1F921E
:100220000F920FB60F9211242F933F934F935F932A
:100230006F937F938F939F93AF93BF9340911228B7
:1002400050911328609114287091152880911028DE
:100250009091112820910E2830910F28420F531FA2
:10026000611D711D20910C2830910D28820F931F64
:10027000883E23E0920730F0885E93404F5F5F4FE7
:100280006F4F7F4F8093102890931128409312282E
:100290005093132860931428709315288091082890
:1002A00090910928A0910A28B0910B280196A11DD0
:1002B000B11D8093082890930928A0930A28B09331
:1002C0000B2881E08093B60ABF91AF919F918F91E7
:1002D0007F916F915F914F913F912F910F900FBE42
:1002E0000F901F901895CF93DF93CDB7DEB7689727
:1002F000CDBFDEBF88ED90E084BF9093610080E0C9
:1003000094E2A4EFB0E08093002890930128A0939A
:100310000228B0930328809102068660809302062B
:1003200080910006816080930006809102068F7C98
:10033000809302068091A0008F788093A000809126
:1003400002068061809302061092E20581E08093AC
:10035000E40583E08093010A8FEF90E08093260A02
:100360009093270A80E890E08093380A9093390AA6
:1003700080933A0A90933B0A80933C0A90933D0AFB
:100380008BE08093000A8091E50581608093E5050C
:100390008091E50582608093E505E0E8FAE037E0CA
:1003A0002FEF90E885E031832487958780837096CE
:1003B000E03C4AE0F407B9F780E094E08093062837
:1003C0009093072880910628909107282FEF30E01E
:1003D000B9010E944203609304287093052880911C
:1003E000062890910728E8EEF3E0BF010E9442033F
:1003F00060930E2870930F2880910628909107280B
:10040000BF010E94420380930C2890930D282093F3
:10041000BC0A3093BD0A8091B50A81608093B50A09
:1004200084E08093B00A8091B00A81608093B00A22
:10043000789461E070E086E00E946F0061E070E017
:1004400087E00E946F0061E070E088E00E946F002A
:1004500061E070E089E00E946F0070E060E08AE097
:100460000E946F0061E070E08BE00E946F0061E02D
:1004700070E08CE00E946F0061E070E08EE00E940E
:100480006F0061E070E08FE00E946F0061E070E05B
:1004900080E10E946F0061E070E081E10E946F00E6
:1004A00061E070E082E10E946F0061E070E083E152
:1004B0000E946F0061E070E084E10E946F0061E0E3
:1004C00070E085E10E946F0061E070E08BE00E94C7
:1004D000C8002AE0422E512C612C712C7E0181E152
:1004E000E80EF11C30E0232E30E0332E70E060E0A7
:1004F0008BE00E94C80061E070E08BE00E94C800C1
:1005000018E1812C912C5401880C991CAA1CBB1C4D
:100510008AE00E949E008091280486958170882A36
:1005200061E070E08CE00E94C80070E060E08CE068
:100530000E94C800115041F781149104A104B10434
:1005400039F1A5019401CA01B901A30192010E94E8
:1005500056031F5F2115310541055105A1F71930DB
:1005600008F018E0F70148E011924A95E9F76701B1
:100570008C2D8E19811770F4C501B401A30192016D
:100580000E945603F60161936F0149015A01F0CFB1
:1005900011E0E8CF88E0F701DE01119601900D929D
:1005A0008A95E1F788E0FE013196DE011996019007
:1005B0000D928A95E1F788E0FE013996D701019006
:1005C0000D928A95E1F784EF882E86E4982E6701D4
:1005D0008C2D8E19811708F046C0F60101916F012C
:1005E000602F617070E086E00E94C800602F62702A
:1005F00070E089E00E94C800602F647070E088E0BD
:100600000E94C8000870602F70E087E00E94C80058
:10061000F40101914F010B3228F461E070E0802F6A
:100620000E94C8008BE891E00197F1F770E060E06C
:1006300086E00E94C80070E060E089E00E94C80087
:1006400070E060E088E00E94C80070E060E087E051
:100650000E94C8000B3208F0BBCF70E060E0802F32
:100660000E94C800B5CF183031F08BE891E00197B7
:10067000F1F71F5FF8CF2114310409F437CF0E943E
:10068000000034CFAA1BBB1B51E107C0AA1FBB1F30
:10069000A617B70710F0A61BB70B881F991F5A950E
:1006A000A9F780959095BC01CD010895A1E21A2E7D
:1006B000AA1BBB1BFD010DC0AA1FBB1FEE1FFF1F06
:1006C000A217B307E407F50720F0A21BB30BE40B56
:1006D000F50B661F771F881F991F1A9469F760959D
:1006E0007095809590959B01AC01BD01CF01089557
:0406F000F894FFCFAC
:1006F4001514131211100F0E000000030001020064
:1007040000010100000000000000000000000000E3
:1007140000000504000506020401030001000102B3
:10072400030201000203040502030504020200059A
:100734000201050004010104040403030303050585
:1007440003030000010120100120400410020801ED
:100754000201020408040201040810200408201005
:040764000024F40079
:00000001FF
