:100000000C9451000C9479000C9479000C947900B4
:100010000C9479000C9479000C9479000C9479007C
:100020000C9479000C9479000C9479000C9479006C
:100030000C9479000C9479000C9479000C9479005C
:100040000C9479000C9479000C9479000C9479004C
:100050000C9479000C9479000C9479000C9479003C
:100060000C9479000C9479000C9479000C9479002C
:100070000C9479000C9479000C9479000C9479001C
:100080000C9479000C9479000C9479000C9479000C
:100090000C9431030C94BB030C9495030C947900DD
:1000A000360611241FBECFEFCDBFDFE3DEBF18E25F
:1000B000A0E0B8E2E5EAFEE002C005900D92A430AF
:1000C000B107D9F728E2A4E0B8E201C01D92A13B34
:1000D000B207E1F710E0C1E5D0E004C02197FE01CE
:1000E0000E94BA06C035D107C9F70E9404040C94D7
:1000F000DA060C940000FC0154894589252F30E074
:10010000842F90E0821B930B541710F0CF96089524
:1001100001970895FC0192898389981761F0A3895A
:10012000AE0FBF2FB11D59968C9193899F5F9F731E
:10013000938B90E008958FEF9FEF0895FC019289D3
:100140008389981731F08389E80FF11D818D90E044
:1001500008958FEF9FEF0895FC0192892389892FDD
:1001600090E0805C9F4F821B91098F7399270895BF
:10017000CF93DF93EC01E881F9810680F781E02DD0
:100180000995EC85FD8586818F738683EC85FD85D9
:1001900085818F7585838B898A8B198ADF91CF91B1
:1001A0000895CF93DF93FC0194898589C485D58513
:1001B000981306C08D818F7D8D83DF91CF91089537
:1001C000A589AE0FBF2FB11DA75ABF4F2C918589AE
:1001D00090E001968F739927858B80E48C83A485AA
:1001E000B58512962C93948985899813E6CFA485BA
:1001F000B58515968C9115978F7D15968C9387896B
:100200008823D9F2808D80931301178AD6CFDC0121
:100210001C96ED91FC910FB607FE03C0258125FDCC
:1002200004C0248125FD0C94D1000895EF92FF9223
:100230000F931F93CF93DF93EC0181E0898B9C890F
:100240008D8998131CC0AC85BD8514968C9114972C
:1002500085FF15C012966C93AC85BD8580E414961D
:100260008C93EC85FD8585818F7D858381E090E091
:10027000DF91CF911F910F91FF90EF9008958091A2
:10028000110180FF08C080911301888F8E898093AF
:10029000130181E08F8BF62E0C8910E00F5F1F4F4A
:1002A0000F731127E02E8D898E1104C0CE010E949C
:1002B0000701F9CFEC89EC0FFD2FF11DE75AFF4F35
:1002C000F0820C8BEC85FD8585818062CECFCF934B
:1002D000DF93FC0121892223C9F0EC0180911101F7
:1002E00080FF08C080911301808F8689809313015D
:1002F00081E0878BEC85FD85858185FD03C0848148
:1003000086FD04C0CE010E940701F4CFDF91CF919A
:100310000895CF93DF9390E0FC01E85DF14B2081DD
:100320002F3F71F0FC01E25FF14BA08130E2A39F0F
:10033000D0011124BC5F6130710529F411962C9312
:10034000DF91CF9108958C50924BEC01E881EF3F03
:1003500089F0CD014096E80FF92FF11D9FB7F89471
:1003600012962C9380816230710539F48860808305
:100370009FBFE6CFF0E0E0E0F1CF877FF8CF282FF6
:1003800030E0F901E652F24BE081EE2309F1E13071
:1003900021F0F0F0E63098F008954091010A2C50D9
:1003A000324BF90120812C5F81E090E001C0880F81
:1003B0002A95EAF7809584238093010A089580E1C5
:1003C000E89FF0011124E05AF54F81818F7E8183EF
:1003D0000895FF920F931F93CF93DF93082F10E0A0
:1003E000F801E85DF14BF0809FEFF916A1F0EB0109
:1003F0008B3210F40E94BF01F801E25FF14BE08103
:1004000080E2E89FF0011124FC5F80818F2179F068
:10041000209739F4F682DF91CF911F910F91FF90D1
:100420000895229711F4F782F6CFF582F4CFD80120
:10043000AC50B24B8C91309771F08F3F61F0709659
:10044000E80FF11D9FB7F8948081CD2B39F4877F99
:1004500080839FBFE0CFF0E0E0E0F4CF8860F8CF8A
:10046000CF92DF92EF92FF920F931F93CF93DF9380
:10047000EC016A017B01022F8989882339F0E88128
:10048000F9810288F389E02DCE0109959889809140
:10049000E205892B8093E2051FB7F89460E070E2D3
:1004A00081EA97E0A70196010E94710669017A012D
:1004B0008FEFC81AD80AE80AF80AF694E794D79496
:1004C000C794EC85FD8586818D7F8683EC85FD85CF
:1004D00086818683198AA09123110A2E000CBB0BFA
:1004E000A70196010E94B20620E034E040E050E00F
:1004F0000E949306EC85FD85C20ED31EE41EF51EF8
:10050000C086D186EC85FD850783EC85FD858681D7
:10051000806C8683EC85FD858581806885838E85EA
:100520008B3220F462E070E00E9489018F858B326B
:1005300020F461E070E00E94E9018F858B3220F4A5
:1005400061E070E00E9489011FBFDF91CF911F9190
:100550000F91FF90EF90DF90CF900895AF92BF92F0
:10056000CF92DF92EF92FF920F931F93CF93DF937F
:100570006C017B018B01040F151FEB015E01AE18AE
:10058000BF08C017D10759F06991D601ED91FC91D0
:100590000190F081E02DC6010995892B79F7C501FD
:1005A000DF91CF911F910F91FF90EF90DF90CF904F
:1005B000BF90AF90089581E00895DC01ED91FC912A
:1005C0000088F189E02D23E030E00994FC010190DE
:1005D0000020E9F73197AF01481B590BBC0186E1B8
:1005E00098E20C94AE028F929F92AF92BF920F93BB
:1005F0001F93CF93DF93CDB7DEB7A197CDBFDEBFFB
:1006000019A2423008F44AE08E010F5D1F4F842E7C
:10061000912CB12CA12CA50194010E947106E62F0A
:10062000B901CA01EA30DCF4E05DD801EE938D0136
:10063000232B242B252B79F790E080E0109719F0DD
:10064000CD010E94E602A196CDBFDEBFDF91CF9122
:100650001F910F91BF90AF909F908F900895E95C8C
:10066000E4CF1F920F920FB60F9211242F933F9356
:100670004F935F936F937F938F939F93AF93BF93AA
:1006800040911228509113286091142870911528D8
:10069000809110289091112820910E2830910F28D8
:1006A000420F531F611D711D20910C2830910D28A0
:1006B000820F931F883E23E0920730F0885E9340BC
:1006C0004F5F5F4F6F4F7F4F80931028909311289B
:1006D0004093122850931328609314287093152880
:1006E0008091082890910928A0910A28B0910B28A0
:1006F0000196A11DB11D8093082890930928A0930D
:100700000A28B0930B2881E08093B60ABF91AF917D
:100710009F918F917F916F915F914F913F912F9119
:100720000F900FBE0F901F9018951F920F920FB64B
:100730000F9211242F933F934F935F936F937F9367
:100740008F939F93AF93BF93EF93FF9386E198E2CC
:100750000E94D100FF91EF91BF91AF919F918F9136
:100760007F916F915F914F913F912F910F900FBEAD
:100770000F901F9018951F920F920FB60F92112491
:100780002F933F934F935F936F937F938F939F9399
:10079000AF93BF93EF93FF93E0912228F09123282A
:1007A000818181FD2FC06081809128288F5F8F73A8
:1007B00090912928891741F0E0912828F0E0EA5E1D
:1007C000F74D618F809328288091AF289091B028B1
:1007D000009739F0DC01ED91FC910190F081E02D62
:1007E0000995FF91EF91BF91AF919F918F917F916B
:1007F0006F915F914F913F912F910F900FBE0F908E
:100800001F9018958081EDCFCF93DF93CDB7DEB7E2
:100810006897CDBFDEBF88ED90E084BF9093610004
:1008200080E094E2A4EFB0E0809300289093012848
:10083000A0930228B09303288091020686608093DB
:100840000206809100068160809300068091020676
:100850008F7C809302068091A0008F788093A00007
:10086000809102068061809302061092E20581E089
:100870008093E40583E08093010A8FEF90E08093FA
:10088000260A9093270A80E890E08093380A909394
:10089000390A80933A0A90933B0A80933C0A9093DA
:1008A0003D0A8BE08093000A8091E505816080938A
:1008B000E5058091E50582608093E505E0E8FAE0D2
:1008C00037E02FEF90E885E0318324879587808398
:1008D0007096E03C4AE0F407B9F780E094E080933A
:1008E00006289093072880910628909107282FEFDB
:1008F00030E0B9010E945D066093042870930528DA
:100900008091062890910728E8EEF3E0BF010E944D
:100910005D0660930E2870930F28809106289091B1
:100920000728BF010E945D0680930C2890930D2834
:100930002093BC0A3093BD0A8091B50A81608093F0
:10094000B50A84E08093B00A8091B00A81608093F8
:10095000B00A789440E052EC61E070E086E198E201
:100960000E94DD0261E070E086E00E94890161E0A2
:1009700070E087E00E94890161E070E088E00E94F9
:10098000890161E070E089E00E94890170E060E027
:100990008AE00E94890161E070E08BE00E94890199
:1009A00061E070E08CE00E94890161E070E08EE01F
:1009B0000E94890161E070E08FE00E94890161E09E
:1009C00070E080E10E94890161E070E081E10E94B5
:1009D000890161E070E082E10E94890161E070E0DC
:1009E00083E10E94890161E070E084E10E94890155
:1009F00061E070E085E10E94890161E070E08BE0D8
:100A00000E94E9012AE0422E512C612C712C7E01BA
:100A100081E1E80EF11C3E2C70E060E08BE00E946A
:100A2000E90161E070E08BE00E94E90118E1812CAE
:100A3000912C5401880C991CAA1CBB1C8AE00E94B2
:100A4000BF018091280486958170882A61E070E05A
:100A50008CE00E94E90170E060E08CE00E94E90116
:100A6000115041F781149104A104B10439F1A50199
:100A70009401CA01B901A30192010E9471061F5F8E
:100A80002115310541055105A1F7193008F018E08D
:100A9000F70148E011924A95E9F76701B401C501F1
:100AA0002C2D2E19211760F4A30192010E947106CA
:100AB000F60161936F01B901CA01F2CF11E0E8CFED
:100AC00088E0F701DE01119601900D928A95E1F719
:100AD00088E0FE013196DE01199601900D928A950B
:100AE000E1F788E0FE013996D70101900D928A95D1
:100AF000E1F782E49EE40E94E60242E0C501B4010F
:100B00000E94F30281E59EE40E94E60284E59EE4F1
:100B10000E94E60242E060E070E0CB010E94F30236
:100B200081E59EE40E94E60283E69EE40E94E602DE
:100B30004AE060E070E0CB010E94F30281E59EE4B0
:100B40000E94E60282E79EE40E94E602612F70E0C6
:100B500090E080E04AE00E94F30281E59EE40E947A
:100B6000E60281E89EE40E94E602670157018A2DB1
:100B70008E19811770F4F50161915F0170E090E0CA
:100B800080E04AE00E94F3028EE89EE40E94E602C2
:100B9000EECF81E59EE40E94E60280E99EE40E9499
:100BA000E60281E59EE40E94E60282EDA82E8DE435
:100BB000B82E8C2D8319811708F048C0F6010191D9
:100BC0006F01602F617070E086E00E94E901602F84
:100BD000627070E089E00E94E901602F647070E04B
:100BE00088E00E94E901602F687070E087E00E9451
:100BF000E901F50121905F01FAE2F21528F061E0C8
:100C000070E0822D0E94E9018BE891E00197F1F7F5
:100C100070E060E086E00E94E90170E060E089E059
:100C20000E94E90170E060E088E00E94E90170E064
:100C300060E087E00E94E9014AE2421508F4B9CF7A
:100C400070E060E0822D0E94E901B3CF183031F0EE
:100C50008BE891E00197F1F71F5FF8CF80E090E01B
:100C6000892B09F4D9CE0E940000D6CEE6E1F8E245
:100C70001282138288EE93E0A0E0B0E08483958333
:100C8000A683B7838CEB9DE48083918380E698E014
:100C90008487958788E1868789E1878780E4808BD0
:100CA000128A138A148A158A86E2868B178A108E16
:100CB0001092AF281092B0280895AA1BBB1B51E1D7
:100CC00007C0AA1FBB1FA617B70710F0A61BB70BBC
:100CD000881F991F5A95A9F780959095BC01CD0161
:100CE0000895A1E21A2EAA1BBB1BFD010DC0AA1F6D
:100CF000BB1FEE1FFF1FA217B307E407F50720F085
:100D0000A21BB30BE40BF50B661F771F881F991FFF
:100D10001A9469F760957095809590959B01AC0148
:100D2000BD01CF010895052E97FB1EF400940E948B
:100D3000AA0657FD07D00E94710607FC03D04EF4A7
:100D40000C94AA0650954095309521953F4F4F4FF2
:100D50005F4F089590958095709561957F4F8F4F67
:100D60009F4F0895B7FF0C94C0060E94C006821BD7
:100D7000930B0895EE0FFF1F0590F491E02D099459
:100D80000E94CB06A59F900DB49F900DA49F800D4F
:100D9000911D11240895A29FB001B39FC001A39F8C
:100DA000700D811D1124911DB29F700D811D1124A4
:080DB000911D0895F894FFCF96
:100DB800000000001601AE027B006701AC008A004B
:100DC8009E00DD023002B800DB0215141312111068
:100DD8000F0E0000000300010200000101000000E6
:100DE80000000000000000000000000005040005ED
:100DF80006020401030001000102030201000203CC
:100E080004050203050402020005020105000401AD
:100E1800010404040303030305050303000001019F
:100E280020100120400410020801020102040804F5
:100E380002010408102004082010696E7075745FA0
:100E48006269747320203D20000D0A006F7574706C
:100E580075745F62697473203D20006F75747075D6
:100E6800745F64656320203D20006469676974735A
:100E78005F6C656E20203D2000646967697473208B
:100E880020202020203D20002D2D2D2D2D2D2D2DF5
:0D0E98002D2D2D2D2D2D2D2D2D2D2D2D0031
:040EA5000024F40031
:00000001FF
